:100000000C9463000C948B000C948B000C948B006C
:100010000C948B000C948B000C948B000C948B0034
:100020000C948B000C948B000C948B000C948B0024
:100030000C948B000C948B000C948B000C948B0014
:100040000C947E050C948B000C94CF070C948B00C1
:100050000C948B000C948B000C948B000C948B00F4
:100060000C948B000C948B000000000024002700EF
:100070002A0000000000250028002B0000000000DE
:1000800023002600290004040404040404040202DA
:100090000202020203030303030301020408102007
:1000A0004080010204081020010204081020000012
:1000B0000007000201000003040600000000000029
:1000C0000000A0002C0911241FBECFEFD8E0DEBF36
:1000D000CDBF11E0A0E0B1E0EEE3F0E202C0059098
:1000E0000D92A63AB107D9F712E0A6EAB1E001C035
:1000F0001D92A83DB107E1F710E0C6ECD0E004C0C6
:100100002297FE010E941910C23CD107C9F70E9434
:100110006E050C941D100C94000080919601909136
:100120009701089580919801909199010895809187
:100130009A0190919B0108958EE292E008950895AE
:100140008EE292E066E047E00E94900B0895AB01DA
:10015000BC0186EC92E00E94650A0895AB01BC01E7
:1001600086EC92E00E94AF0A0895BC0186EC92E012
:100170000E94C20A0895682F86EC92E00E94A209AC
:100180000895BC0186EC92E00E94B2090895AB018B
:10019000BC0186EC92E00E94880A0895AB01BC0184
:1001A00086EC92E00E94880A0895BC0186EC92E0F9
:1001B0000E94BA0A0895BC0186EC92E00E9473097D
:1001C00008952091260230912702409128025091F3
:1001D0002902203E81E0380780E0480780E0580788
:1001E000C4F51092950163E072E080E090E0621B3C
:1001F000730B840B950B60932A0270932B028093F0
:100200002C0290932D020E94A00E20E030E044EBDF
:1002100052E40E94500F20E030E84BEB53E40E9480
:10022000050E0E946D0E6093160270931702809364
:1002300018029093190280E091E00E94DB00609127
:1002400016027091170280911802909119020E9473
:10025000AE00209126023091270240912802509151
:1002600029022D3182E0380780E0480780E05807F6
:100270000CF441C082E0809395016AE773E080E06E
:1002800090E0621B730B840B950B60932A027093B2
:100290002B0280932C0290932D020E94A00E20E04E
:1002A00030E044EB52E40E94500F20E030E84BEB8A
:1002B00053E40E94050E0E946D0E2AE530E040E0F6
:1002C00050E0261B370B480B590B20931602309336
:1002D0001702409318025093190285E091E00E94A2
:1002E000DB006091160270911702809118029091C4
:1002F00019020E94AE008091260290912702A091DF
:100300002802B0912902805E9140A040B040CD9774
:10031000A105B10538F481E0809395018AE091E070
:100320000E94C100089520911E0230911F02409149
:10033000200250912102253082E0380780E04807F2
:1003400080E05807C4F51092940163E272E080E007
:1003500090E0621B730B840B950B60932A027093E1
:100360002B0280932C0290932D020E94A00E20E07D
:1003700030E044EB52E40E94500F20E030E84AEBBA
:1003800053E40E94050E0E946D0E6093220270934A
:10039000230280932402909325028EE091E00E9434
:1003A000DB006091220270912302809124029091DF
:1003B00025020E94AE0020911E0230911F02409142
:1003C000200250912102223482E0380780E0480761
:1003D00080E058070CF441C082E08093940168E902
:1003E00073E080E090E0621B730B840B950B6093CD
:1003F0002A0270932B0280932C0290932D020E946C
:10040000A00E20E030E044EB52E40E94500F20E0C8
:1004100030E84AEB53E40E94050E0E946D0E2AE577
:1004200030E040E050E0261B370B480B590B20937F
:10043000220230932302409324025093250283E149
:1004400091E00E94DB006091220270912302809172
:100450002402909125020E94AE0080911E0290918C
:100460001F02A0912002B091210285509240A0402D
:10047000B040CD97A105B10538F481E08093940197
:1004800088E191E00E94C1000895EF92FF920F93DE
:100490001F937C0106EC12E0C8016CE171E00E9440
:1004A0007309C801B7010E94BA0A1F910F91FF900A
:1004B000EF900895682F86EC92E00E946B090895F2
:1004C00086EC92E00E940D09089586EC92E00E946D
:1004D000E508089586EC92E00E94D10820E030E023
:1004E000882311F021E030E0C90108954EEF50E07B
:1004F00060E070E020E030E00E94F40C08950F937B
:100500001F938C014CE750E060E070E020E030E0A9
:100510000E94F40CC80140E850E060E070E020E088
:1005200030E00E94F40C1F910F9108950F931F93D8
:10053000CF93DF93EC01162F072F4CE750E060E0DC
:1005400070E020E030E00E94F40C212F302FC90130
:100550008E31910514F08DE190E083569F4FAC01F0
:10056000662757FD6095762FCE0120E030E00E948F
:10057000F40CDF91CF911F910F9108950F931F936A
:100580008C014CE750E060E070E020E030E00E9439
:10059000F40CC8014DE950E060E070E020E030E08C
:1005A0000E94F40C1F910F9108950F931F938C01DB
:1005B0004EEF50E060E070E020E030E00E94F40C8C
:1005C000C80141E050E060E070E020E030E00E94CF
:1005D000F40C1F910F9108950F931F938C014EEF10
:1005E00050E060E070E020E030E00E94F40CC801D0
:1005F00040EC50E060E070E020E030E00E94F40C5D
:100600001F910F9108950F931F938C014EEF50E0AF
:1006100060E070E020E030E00E94F40CC80140E8A7
:1006200050E060E070E020E030E00E94F40C1F91A8
:100630000F9108950F931F938C010E940303C8012B
:1006400065E271E00E940F0DC8010E94EC02C80132
:1006500065E371E00E940F0DC8014CE750E060E0D7
:1006600070E020E030E00E94F40CC8014AE050E065
:1006700060E070E020E030E00E94F40C1F910F91E8
:1006800008950E940F0D08950F931F938C014CE75E
:1006900050E060E070E020E030E00E94F40CC8011F
:1006A00066E471E00E940F0DC80161E070E00E94F5
:1006B000DC0C1F910F9108950E94DC0C089580912D
:1006C00098010E949C06AA2797FDA095BA2F8093B7
:1006D000260290932702A0932802B09329028091CA
:1006E00096010E949C06AA2797FDA095BA2F809399
:1006F0001E0290931F02A0932002B09321028091CA
:100700009A010E949C06AA2797FDA095BA2F809374
:100710001A0290931B02A0931C02B0931D020E9428
:1007200093010E94E1008EE292E00E94D5028EE2E7
:1007300092E00E9403038EE292E068E471E00E947E
:100740000F0D80919501882371F48EE292E06CE4A4
:1007500071E00E940F0D60911602709117028EE2F7
:1007600092E00E94DC0C80919501813031F48EE2A0
:1007700092E06FE471E00E940F0D8091950182304C
:1007800071F48EE292E062E571E00E940F0D6091DB
:100790001602709117028EE292E00E94DC0C8EE24B
:1007A00092E065E571E00E940F0D8091940188232D
:1007B00071F48EE292E06BE571E00E940F0D6091A2
:1007C0002202709123028EE292E00E94DC0C809162
:1007D0009401813031F48EE292E06FE471E00E9486
:1007E0000F0D80919401823071F48EE292E06EE5FB
:1007F00071E00E940F0D60912202709123028EE23F
:1008000092E00E94DC0C8EE292E00E94EC028EE20A
:1008100092E061E671E00E940F0D60911A02709102
:100820001B028EE292E00E94DC0C64E670E080E045
:1008300090E00E942706089586EC92E04EEF50E08B
:1008400060E070E020E030E00E94D20A08950F934B
:100850001F9306EC12E0C8014CE750E060E070E046
:1008600020E030E00E94D20AC80140E850E060E099
:1008700070E020E030E00E94D20A1F910F910895AD
:100880000F931F9306EC12E0C8014CE750E060E0C4
:1008900070E020E030E00E94D20AC80166E471E016
:1008A0000E947309C80161E070E00E94BA0A1F91BA
:1008B0000F9108950F931F93182F092F86EC92E044
:1008C0004CE750E060E070E020E030E00E94D20AA7
:1008D000212F302FC9018E31910514F08DE190E068
:1008E00083569F4FAC01662757FD6095762F86ECA7
:1008F00092E020E030E00E94D20A1F910F9108950B
:100900000F931F9306EC12E0C8014CE750E060E043
:1009100070E020E030E00E94D20AC8014DE950E0CA
:1009200060E070E020E030E00E94D20A1F910F9159
:1009300008950F931F9306EC12E0C8014EEF50E0AC
:1009400060E070E020E030E00E94D20AC80141E09F
:1009500050E060E070E020E030E00E94D20A1F9199
:100960000F9108950F931F9306EC12E0C8014EEF0C
:1009700050E060E070E020E030E00E94D20AC80160
:1009800040EC50E060E070E020E030E00E94D20AED
:100990001F910F9108950F931F9306EC12E0C80169
:1009A0004EEF50E060E070E020E030E00E94D20ABC
:1009B000C80140E850E060E070E020E030E00E94D4
:1009C000D20A1F910F9108950F931F930E94CB0499
:1009D00006EC12E0C80165E271E00E9473090E9412
:1009E000B204C80165E371E00E947309C8014CE7D5
:1009F00050E060E070E020E030E00E94D20AC801E0
:100A00004AE050E060E070E020E030E00E94D20A6E
:100A10001F910F9108950F931F9306EC12E0C801E8
:100A20004EEF50E060E070E020E030E00E94D20A3B
:100A3000C80140EC50E060E070E020E030E00E944F
:100A4000D20A1F910F9108950F931F9306EC12E0A5
:100A5000C8014EEF50E060E070E020E030E00E941E
:100A6000D20AC80140E850E060E070E020E030E0E9
:100A70000E94D20A1F910F91089581E060E00E94C8
:100A8000130782E060E00E94130783E060E00E94A9
:100A9000130786E060E00E94130787E061E00E9490
:100AA000130781E061E00E94330782E061E00E9469
:100AB000330783E061E00E9433078EE292E040E872
:100AC00055E260E070E00E942D0D86EC92E040E07F
:100AD00051EE60E070E00E94680808950E945F0691
:100AE0000E943D050E945F03FDCF0E94E40C089523
:100AF0000E94220D08950E944C0D08951F920F929E
:100B00000FB60F9211242F938F939F93AF93BF93A0
:100B10008091360290913702A0913802B09139024B
:100B20000196A11DB11D8093360290933702A093C8
:100B30003802B093390280913A0290913B02A09121
:100B40003C02B0913D028050904CAF4FBF4F80931C
:100B50003A0290933B02A0933C02B0933D0227C01F
:100B600080913A0290913B02A0913C02B0913D02EB
:100B700080589E43A040B04080933A0290933B023D
:100B8000A0933C02B0933D0280913E0290913F02BF
:100B9000A0914002B09141020196A11DB11D809328
:100BA0003E0290933F02A0934002B0934102809195
:100BB0003A0290913B02A0913C02B0913D028158D3
:100BC0009E43A040B04060F6BF91AF919F918F913E
:100BD0002F910F900FBE0F901F9018958FB7F8941C
:100BE00020913E0230913F024091400250914102DB
:100BF0008FBFB901CA0108956FB7F89486B590E028
:100C0000A0E0B0E0A89B08C00097A105B10521F4C1
:100C100080E091E0A0E0B0E0209136023091370210
:100C200040913802509139026FBF542F432F322F19
:100C30002227280F391F4A1F5B1F82E0220F331F14
:100C4000441F551F8A95D1F7B901CA010895EF9243
:100C5000FF920F931F937B018C018FB7F894409103
:100C60003E0250913F0260914002709141028FBF5D
:100C70002FB7F89480913E0290913F02A0914002DC
:100C8000B09141022FBF841B950BA60BB70BE81642
:100C9000F9060A071B0760F71F910F91FF90EF906D
:100CA0000895019759F0FC01EE0FFF1FEE0FFF1F93
:100CB00032978FB7F8943197F1F78FBF08957894F2
:100CC00084B5826084BD84B5816084BD85B5826051
:100CD00085BD85B5816085BDEEE6F0E080818160EF
:100CE0008083E1E8F0E080818260808380818160A0
:100CF0008083E0E8F0E0808181608083E1EBF0E0D8
:100D0000808184608083E0EBF0E08081816080837B
:100D1000EAE7F0E080818460808380818260808364
:100D20008081816080838081806880831092C1008F
:100D3000089580939C010895877090919C019295ED
:100D4000990F990F907C982B90937C0080917A005A
:100D5000806480937A0080917A0086FDFCCF209198
:100D6000780040917900942F80E030E0282B392BD7
:100D7000C90108951F93CF93DF93182FEB0161E012
:100D80000E941307E12FF0E0E255FF4F849183307A
:100D900051F480918000806880938000D093890016
:100DA000C09388003CC0843051F480918000806200
:100DB00080938000D0938B00C0938A0030C0813034
:100DC00039F4209729F184B5806884BDC7BD27C058
:100DD000823039F42097E1F084B5806284BDC8BDCB
:100DE0001EC0863041F48091B00080688093B000CE
:100DF000C093B30014C0873041F48091B00080628A
:100E00008093B000C093B4000AC0C038D1051CF470
:100E1000812F60E002C0812F61E00E943307DF91E3
:100E2000CF911F910895282F30E0C90186569F4F1A
:100E3000FC0194912A573F4FF9018491882391F046
:100E4000E82FF0E0EE0FFF1FE859FF4FA591B49196
:100E5000662329F48C91909589238C9308958C9125
:100E6000892B8C930895482F50E0CA0182559F4FDB
:100E7000FC012491CA0186569F4FFC0194914A5768
:100E80005F4FFA0134913323D1F1222331F1233022
:100E900021F4809180008F7705C0243031F4809157
:100EA00080008F7D8093800018C0213019F484B5B4
:100EB0008F7704C0223021F484B58F7D84BD0DC0AE
:100EC000263021F48091B0008F7705C0273029F4B7
:100ED0008091B0008F7D8093B000E32FF0E0EE0FA3
:100EE000FF1FEE58FF4FA591B491662329F48C9112
:100EF000909589238C9308958C91892B8C930895D8
:100F0000682F70E0CB0182559F4FFC012491CB01EB
:100F100086569F4FFC0144916A577F4FFB01949185
:100F2000992319F420E030E038C0222331F1233036
:100F300021F4809180008F7705C0243031F48091B6
:100F400080008F7D8093800018C0213019F484B513
:100F50008F7704C0223021F484B58F7D84BD0DC00D
:100F6000263021F48091B0008F7705C0273029F416
:100F70008091B0008F7D8093B000892F90E0880F22
:100F8000991F84589F4FFC01A591B4918C9120E04A
:100F900030E0842311F021E030E0C90108951F9270
:100FA0000F920FB60F9211242F933F934F935F939D
:100FB0006F937F938F939F93AF93BF93EF93FF9321
:100FC0004091C600E091C202F091C302CF010196A8
:100FD00060E870E00E94B30F9C018091C402909180
:100FE000C5022817390739F0EE5BFD4F4083309377
:100FF000C3022093C202FF91EF91BF91AF919F91E5
:101000008F917F916F915F914F913F912F910F90B1
:101010000FBE0F901F9018958F92AF92CF92DF92D4
:10102000EF92FF920F931F93DF93CF93CDB7DEB76D
:10103000FC0181EA91E0918380837383628355830D
:1010400044833783268311870087F386E286D5861B
:10105000C486A68687868D85808B8E85818BCF9171
:10106000DF911F910F91FF90EF90DF90CF90AF90A5
:101070008F9008958F92AF92CF92DF92EF92FF926E
:101080000F931F93DF93CF93CDB7DEB7FC0181EAB7
:1010900091E0918380837383628355834483378394
:1010A000268311870087F386E286D586C486A686C6
:1010B00087868D85808B8E85818BCF91DF911F9167
:1010C0000F91FF90EF90DF90CF90AF908F900895A9
:1010D000AF92BF92CF92DF92EF92FF920F931F9346
:1010E000CF93DF936C017A018B01DC011496AD90F4
:1010F000BC901597CB01BA0122E030E040E050E00F
:101100000E94E80F205C3D4B404F5F4FCA01B90180
:10111000A80197010E94E80FC901DA010197A1090E
:10112000B109292F3A2F4B2F552747FD5A95019684
:10113000A11DB11DE5012883E601EE81FF818150EB
:101140008083EA85FB85208141E050E0CA010E845E
:1011500002C0880F991F0A94E2F7282B2083EA85A2
:10116000FB852081CA010F8402C0880F991F0A9451
:10117000E2F7282B2083EA85FB858081088802C05E
:10118000440F551F0A94E2F7842B8083DF91CF919F
:101190001F910F91FF90EF90DF90CF90BF90AF9095
:1011A0000895DC011296ED91FC911397E058FF4FE2
:1011B0008191919180589F4F20813181821B930BA7
:1011C00060E870E00E94B30F0895CF93DF93DC01D5
:1011D0001296ED91FC911397EF01CE57DF4F4881A6
:1011E0005981E058FF4F80819181E058F040841789
:1011F000950719F42FEF3FEF0CC0E40FF51F208186
:10120000CA01019660E870E00E94B30F9983888359
:1012100030E0C901DF91CF910895DC011296ED9184
:10122000FC911397EE57FF4F8081918192938293A7
:101230000895FC01A085B18521898C9190E0022E52
:1012400002C0959587950A94E2F780FFF6CF048453
:10125000F585E02D6083089581EA91E09093C702BF
:101260008093C60282E492E09093C9028093C80200
:1012700085EC90E09093CB028093CA0284EC90E0DE
:101280009093CD028093CC0280EC90E09093CF02BB
:101290008093CE0281EC90E09093D1028093D002B3
:1012A00086EC90E09093D3028093D20284E0809306
:1012B000D40283E08093D50287E08093D60285E054
:1012C0008093D7020895DC01ED91FC910190F081AB
:1012D000E02D09950895DC01ED91FC910190F081DC
:1012E000E02D099508950F931F93CF93DF938C0101
:1012F000EB0109C02196D801ED91FC910190F0819C
:10130000E02DC801099568816623A1F7DF91CF918F
:101310001F910F9108950F931F938C01DC01ED91A4
:10132000FC910190F081E02D6DE00995D801ED91DF
:10133000FC910190F081E02DC8016AE009951F91B0
:101340000F9108950F931F938C01DC01ED91FC9197
:101350000190F081E02D0995C8010E948B091F9131
:101360000F9108950F931F938C010E947309C80178
:101370000E948B091F910F9108950F931F938C0169
:10138000DC01ED91FC910190F081E02D0995C801FF
:101390000E948B091F910F9108952F923F924F92B7
:1013A0005F926F927F928F929F92AF92BF92CF92F5
:1013B000DF92EF92FF920F931F93DF93CF93CDB7FE
:1013C000DEB7A0970FB6F894DEBF0FBECDBF1C01ED
:1013D0006A017B01411551056105710549F4DC0184
:1013E000ED91FC910190F081E02D60E3099554C0EE
:1013F000882499245401422E55246624772401E040
:1014000010E00C0F1D1F080D191DC701B601A30127
:1014100092010E94C60FF80160830894811C911C00
:10142000A11CB11CC701B601A30192010E94C60F05
:10143000C901DA016C017D01C114D104E104F10498
:10144000F1F681E0E82EF12CEC0EFD1EE80CF91C03
:101450003E010894611C711CD501C4010197A109CA
:10146000B1096C01C818D90814C0F601EE0DFF1DB2
:1014700060816A3010F4605D01C0695CD101ED915A
:10148000FC910190F081E02DC10109950894E108DB
:10149000F1086E147F0449F7A0960FB6F894DEBFEA
:1014A0000FBECDBFCF91DF911F910F91FF90EF90B5
:1014B000DF90CF90BF90AF909F908F907F906F9074
:1014C0005F904F903F902F9008952AE00E94CD09A1
:1014D00008950F931F938C010E94650AC8010E9412
:1014E0008B091F910F910895AB0160E070E00E949D
:1014F000650A08950F931F938C01AB0160E070E0C3
:101500000E94650AC8010E948B091F910F910895DE
:10151000EF92FF920F931F93CF93DF93EC017A0129
:101520008B0177FF0FC0E881F9810190F081E02DF8
:101530006DE2099510950095F094E094E11CF11C82
:10154000011D111DCE01B801A7012AE00E94CD099D
:10155000DF91CF911F910F91FF90EF9008950F931E
:101560001F938C010E94880AC8010E948B091F9159
:101570000F910895AB01662757FD6095762F0E9465
:10158000880A08950F931F938C01AB01662757FDBE
:101590006095762F0E94880AC8010E948B091F91CE
:1015A0000F910895DC012115310541F4ED91FC9175
:1015B0000190F081E02D642F099508952A303105BE
:1015C00019F40E94880A08950E94CD0908950F9386
:1015D0001F938C010E94D20AC8010E948B091F919F
:1015E0000F9108959F92AF92BF92CF92DF92EF92A8
:1015F000FF920F931F93CF93DF93EC017A018B013E
:10160000922ECB01BA0120E030E040E050E00E9491
:10161000010E882364F4E881F9810190F081E02DC6
:10162000CE016DE2099517FB109517F9109520E092
:1016300030E040E05FE3AA240BC0CA01B90120E01A
:1016400030E040E251E40E94050E9B01AC01A394FE
:10165000A91498F3C801B7010E949D0D5B016C01AC
:101660000E94720E7B018C01CE01B801A7010E947D
:10167000650A992029F0CE0163EA71E00E9473099E
:10168000C801B7010E949E0E9B01AC01C601B501C5
:101690000E949C0D20C020E030E040E251E40E9416
:1016A000500F7B018C010E946D0E5B016C01CC24FC
:1016B000B7FCC094DC2CCE01B601A5010E94880ABB
:1016C000C601B5010E94A00E9B01AC01C801B70183
:1016D0000E949C0D9A949920F1F6DF91CF911F9171
:1016E0000F91FF90EF90DF90CF90BF90AF909F90C1
:1016F000089522E00E94F20A08950F931F938C012F
:101700000E94790BC8010E948B091F910F910895C7
:10171000FC01608341831282138214821582089532
:10172000FC01608341831282138214821582089522
:10173000AF92BF92DF92EF92FF920F931F93CF93DE
:10174000DF93EC01B62E8A819B81AC81BD8100972D
:10175000A105B10581F1EE80FF808DEF9FEFE80ECE
:10176000F91E898160E00E943307C7010E9451067B
:10177000DD24D39400E010E0AB2CBB248D2D90E051
:101780008A219B21892B19F0898161E002C089811E
:1017900060E00E943307C7010E945106DD0C0F5F15
:1017A0001F4F0830110551F7898161E00E9433070E
:1017B000C7010E945106DF91CF911F910F91FF90B9
:1017C000EF90DF90BF90AF9008950E94980B08951E
:1017D0002F923F924F925F926F927F928F929F9241
:1017E000AF92BF92CF92DF92EF92FF920F931F932F
:1017F000DF93CF93CDB7DEB7A0970FB6F894DEBFD7
:101800000FBECDBF1C016A017B0141155105610569
:10181000710521F460E30E94980B4FC0882499243D
:101820005401422E55246624772401E010E00C0F69
:101830001D1F080D191DC701B601A30192010E94C9
:10184000C60FF80160830894811C911CA11CB11C77
:10185000C701B601A30192010E94C60FC901DA01B6
:101860006C017D01C114D104E104F104F1F681E0C1
:10187000E82EF12CEC0EFD1EE80CF91C3E0108943C
:10188000611C711CD501C4010197A109B1096C014A
:10189000C818D9080FC0F601EE0DFF1D60816A302F
:1018A00010F4605D01C0695CC1010E94980B08944E
:1018B000E108F1086E147F0471F7A0960FB6F89452
:1018C000DEBF0FBECDBFCF91DF911F910F91FF9073
:1018D000EF90DF90CF90BF90AF909F908F907F90D0
:1018E0006F905F904F903F902F9008952AE00E9454
:1018F000E80B0895AB0160E070E00E94760C08955B
:101900000F931F938C016DE00E94980BC8016AE051
:101910000E94980B1F910F9108950F931F938C01B4
:101920000E94760CC8010E94800C1F910F910895AF
:101930000F931F938C010E94980BC8010E94800C8A
:101940001F910F9108950F931F938C010E94980B84
:10195000C8010E94800C1F910F910895EF92FF9291
:101960000F931F93CF93DF93EC017A018B0177FFE5
:101970000BC06DE20E94980B10950095F094E094D6
:10198000E11CF11C011D111DCE01B801A7012AE0C7
:101990000E94E80BDF91CF911F910F91FF90EF9084
:1019A00008950F931F938C010E94AE0CC8010E94F2
:1019B000800C1F910F910895AB01662757FD60952C
:1019C000762F0E94AE0C08950F931F938C01AB01EC
:1019D000662757FD6095762F0E94AE0CC8010E94C5
:1019E000800C1F910F9108952115310521F4642F6A
:1019F0000E94980B08952A30310519F40E94AE0C0C
:101A000008950E94E80B08950F931F938C010E9484
:101A1000F40CC8010E94800C1F910F9108950F9340
:101A20001F93CF93DF938C01EB0104C02196C80173
:101A30000E94980B68816623C9F7DF91CF911F91AF
:101A40000F9108950F931F938C010E940F0DC801F1
:101A50000E94800C1F910F9108950F931F938C018A
:101A60009A01AB01FC01228333834483558360E4F4
:101A700072E48FE090E00E94E80FF801378326833C
:101A8000818161E00E943307F801868197810E947D
:101A900051061F910F910895CF92DF92EF92FF921E
:101AA0000F931F93CF93DF937C01FC01C681D781F5
:101AB000F70180810E948007892BD1F7F70180818F
:101AC0000E948007892B19F00FEF1FEF2BC09DEFAD
:101AD000C92E9FEFD92ECC0EDD1EC60162E070E04C
:101AE0000E94B30FCB0103970E94510600E010E063
:101AF000C0E0D0E0C6010E945106F70180810E943B
:101B000080070C2E02C0880F991F0A94E2F7082B59
:101B1000192B2196C830D10569F7F7018681978185
:101B20000E945106C801DF91CF911F910F91FF9044
:101B3000EF90DF90CF9008955058BB27AA270ED082
:101B400075C166D130F06BD120F031F49F3F11F4B4
:101B50001EF45BC10EF4E095E7FB51C1E92F77D18C
:101B600080F3BA17620773078407950718F071F4BA
:101B70009EF58FC10EF4E0950B2EBA2FA02D0B0110
:101B8000B90190010C01CA01A0011124FF27591BC2
:101B900099F0593F50F4503E68F11A16F040A22FC8
:101BA000232F342F4427585FF3CF46953795279539
:101BB000A795F0405395C9F77EF41F16BA0B620B38
:101BC000730B840BBAF09150A1F0FF0FBB1F661F7F
:101BD000771F881FC2F70EC0BA0F621F731F841FC2
:101BE00048F4879577956795B795F7959E3F08F0E8
:101BF000B3CF9395880F08F09927EE0F97958795A7
:101C00000895D9D008F481E008950CD00FC107D110
:101C100040F0FED030F021F45F3F19F0F0C05111D8
:101C200039C1F3C014D198F39923C9F35523B1F303
:101C3000951B550BBB27AA2762177307840738F03B
:101C40009F5F5F4F220F331F441FAA1FA9F333D09A
:101C50000E2E3AF0E0E830D091505040E695001C4E
:101C6000CAF729D0FE2F27D0660F771F881FBB1F0A
:101C7000261737074807AB07B0E809F0BB0B802DE4
:101C8000BF01FF2793585F4F2AF09E3F510568F030
:101C9000B6C000C15F3FECF3983EDCF386957795C4
:101CA0006795B795F7959F5FC9F7880F911D969532
:101CB000879597F90895E1E0660F771F881FBB1F8E
:101CC000621773078407BA0720F0621B730B840B3B
:101CD000BA0BEE1F88F7E095089504D06894B1110F
:101CE000D9C00895BCD088F09F5790F0B92F99279C
:101CF000B751A0F0D1F0660F771F881F991F1AF017
:101D0000BA95C9F712C0B13081F0C3D0B1E00895DF
:101D1000C0C0672F782F8827B85F39F0B93FCCF360
:101D2000869577956795B395D9F73EF4909580950C
:101D3000709561957F4F8F4F9F4F0895E89409C02C
:101D400097FB3EF490958095709561957F4F8F4FEE
:101D50009F4F9923A9F0F92F96E9BB279395F69504
:101D6000879577956795B795F111F8CFFAF4BB0F82
:101D700011F460FF1BC06F5F7F4F8F4F9F4F16C0E6
:101D8000882311F096E911C0772321F09EE8872F70
:101D9000762F05C0662371F096E8862F70E060E02C
:101DA0002AF09A95660F771F881FDAF7880F9695A5
:101DB000879597F90895990F0008550FAA0BE0E849
:101DC000FEEF16161706E807F907C0F012161306FD
:101DD000E407F50798F0621B730B840B950B39F43D
:101DE0000A2661F0232B242B252B21F408950A26A3
:101DF00009F4A140A6958FEF811D811D089597F9E3
:101E00009F6780E870E060E008959FEF80EC0895A0
:101E100000240A94161617061806090608950024C9
:101E20000A9412161306140605060895092E039443
:101E3000000C11F4882352F0BB0F40F4BF2B11F4B7
:101E400060FF04C06F5F7F4F8F4F9F4F089557FD16
:101E50009058440F551F59F05F3F71F04795880F18
:101E600097FB991F61F09F3F79F0879508951216AF
:101E700013061406551FF2CF4695F1DF08C016165B
:101E800017061806991FF1CF86957105610508940C
:101E90000895E894BB2766277727CB0197F9089523
:101EA0000BD0C4CFB5DF28F0BADF18F0952309F0C6
:101EB000A6CFABCF1124EECFCADFA0F3959FD1F30D
:101EC000950F50E0551F629FF001729FBB27F00DE8
:101ED000B11D639FAA27F00DB11DAA1F649F66273D
:101EE000B00DA11D661F829F2227B00DA11D621F8C
:101EF000739FB00DA11D621F839FA00D611D221F46
:101F0000749F3327A00D611D231F849F600D211D29
:101F1000822F762F6A2F11249F5750408AF0E1F0CC
:101F200088234AF0EE0FFF1FBB1F661F771F881F15
:101F300091505040A9F79E3F510570F060CFAACF55
:101F40005F3FECF3983EDCF3869577956795B79500
:101F5000F795E7959F5FC1F7FE2B880F911D96952A
:101F6000879597F9089597FB092E07260AD077FDE4
:101F700004D049D006D000201AF4709561957F4FA7
:101F80000895F6F7909581959F4F0895A1E21A2E36
:101F9000AA1BBB1BFD010DC0AA1FBB1FEE1FFF1F0D
:101FA000A217B307E407F50720F0A21BB30BE40B5D
:101FB000F50B661F771F881F991F1A9469F76095A4
:101FC0007095809590959B01AC01BD01CF0108955E
:101FD00097FB092E05260ED057FD04D0D7DF0AD077
:101FE000001C38F450954095309521953F4F4F4F48
:101FF0005F4F0895F6F790958095709561957F4FA6
:102000008F4F9F4F0895AA1BBB1B51E107C0AA1F0A
:10201000BB1FA617B70710F0A61BB70B881F991F89
:102020005A95A9F780959095BC01CD010895EE0FC2
:0E203000FF1F0590F491E02D0994F894FFCF66
:10203E00722072200072206C2000722063006520D6
:10204E0075200065206420006520630073656E7343
:10205E006F723A20002052756279202B20417564F0
:10206E0075696E6F002052414420302E322E342B73
:10207E002020202020007C00723A20007220006375
:10208E0020006C20002020653A200075200064207E
:10209E00007468726F74746C653A2000766572799C
:1020AE0020636F6F6C000000000000000000000055
:1020BE000000000000000000000000000000000012
:1020CE0000000000010101000200030001000000F9
:0620DE000019092E0000AC
:00000001FF
